{
  "_format": "hh-sol-artifact-1",
  "contractName": "lottery",
  "sourceName": "contracts/Inbox.sol",
  "abi": [
    {
      "inputs": [],
      "stateMutability": "nonpayable",
      "type": "constructor"
    },
    {
      "inputs": [],
      "name": "enter",
      "outputs": [],
      "stateMutability": "payable",
      "type": "function"
    },
    {
      "inputs": [],
      "name": "getPlayers",
      "outputs": [
        {
          "internalType": "address[]",
          "name": "",
          "type": "address[]"
        }
      ],
      "stateMutability": "view",
      "type": "function"
    },
    {
      "inputs": [],
      "name": "manager",
      "outputs": [
        {
          "internalType": "address",
          "name": "",
          "type": "address"
        }
      ],
      "stateMutability": "view",
      "type": "function"
    },
    {
      "inputs": [],
      "name": "pickWinner",
      "outputs": [],
      "stateMutability": "nonpayable",
      "type": "function"
    },
    {
      "inputs": [
        {
          "internalType": "uint256",
          "name": "",
          "type": "uint256"
        }
      ],
      "name": "players",
      "outputs": [
        {
          "internalType": "address",
          "name": "",
          "type": "address"
        }
      ],
      "stateMutability": "view",
      "type": "function"
    },
    {
      "inputs": [],
      "name": "random",
      "outputs": [
        {
          "internalType": "uint256",
          "name": "",
          "type": "uint256"
        }
      ],
      "stateMutability": "view",
      "type": "function"
    }
  ],
  "bytecode": "0x608060405234801561001057600080fd5b50336000806101000a81548173ffffffffffffffffffffffffffffffffffffffff021916908373ffffffffffffffffffffffffffffffffffffffff1602179055506108fa806100606000396000f3fe6080604052600436106100555760003560e01c8063481c6a751461005a5780635d495aea146100855780635ec01e4d1461009c5780638b5b9ccc146100c7578063e97dcb62146100f2578063f71d96cb146100fc575b600080fd5b34801561006657600080fd5b5061006f610139565b60405161007c91906106e4565b60405180910390f35b34801561009157600080fd5b5061009a61015d565b005b3480156100a857600080fd5b506100b1610305565b6040516100be9190610721565b60405180910390f35b3480156100d357600080fd5b506100dc61033b565b6040516100e991906106ff565b60405180910390f35b6100fa6103c9565b005b34801561010857600080fd5b50610123600480360381019061011e919061053c565b610441565b60405161013091906106e4565b60405180910390f35b60008054906101000a900473ffffffffffffffffffffffffffffffffffffffff1681565b60008054906101000a900473ffffffffffffffffffffffffffffffffffffffff1673ffffffffffffffffffffffffffffffffffffffff163373ffffffffffffffffffffffffffffffffffffffff16146101b557600080fd5b60006001805490506101c5610305565b6101cf919061082d565b90506001818154811061020b577f4e487b7100000000000000000000000000000000000000000000000000000000600052603260045260246000fd5b9060005260206000200160009054906101000a900473ffffffffffffffffffffffffffffffffffffffff1673ffffffffffffffffffffffffffffffffffffffff166108fc479081150290604051600060405180830381858888f1935050505015801561027b573d6000803e3d6000fd5b50600067ffffffffffffffff8111156102bd577f4e487b7100000000000000000000000000000000000000000000000000000000600052604160045260246000fd5b6040519080825280602002602001820160405280156102eb5781602001602082028036833780820191505090505b5060019080519060200190610301929190610480565b5050565b60004442600160405160200161031d939291906106ab565b6040516020818303038152906040528051906020012060001c905090565b606060018054806020026020016040519081016040528092919081815260200182805480156103bf57602002820191906000526020600020905b8160009054906101000a900473ffffffffffffffffffffffffffffffffffffffff1673ffffffffffffffffffffffffffffffffffffffff1681526020019060010190808311610375575b5050505050905090565b662386f26fc1000034116103dc57600080fd5b6001339080600181540180825580915050600190039060005260206000200160009091909190916101000a81548173ffffffffffffffffffffffffffffffffffffffff021916908373ffffffffffffffffffffffffffffffffffffffff160217905550565b6001818154811061045157600080fd5b906000526020600020016000915054906101000a900473ffffffffffffffffffffffffffffffffffffffff1681565b8280548282559060005260206000209081019282156104f9579160200282015b828111156104f85782518260006101000a81548173ffffffffffffffffffffffffffffffffffffffff021916908373ffffffffffffffffffffffffffffffffffffffff160217905550916020019190600101906104a0565b5b509050610506919061050a565b5090565b5b8082111561052357600081600090555060010161050b565b5090565b600081359050610536816108ad565b92915050565b60006020828403121561054e57600080fd5b600061055c84828501610527565b91505092915050565b60006105718383610595565b60208301905092915050565b600061058983836105b3565b60208301905092915050565b61059e816107cd565b82525050565b6105ad816107cd565b82525050565b6105bc816107cd565b82525050565b60006105cd82610761565b6105d78185610791565b93506105e28361073c565b8060005b838110156106135781516105fa8882610565565b975061060583610777565b9250506001810190506105e6565b5085935050505092915050565b600061062b8261076c565b61063581856107a2565b93506106408361074c565b8060005b83811015610678576106558261088d565b61065f888261057d565b975061066a83610784565b925050600181019050610644565b5085935050505092915050565b61068e816107ff565b82525050565b6106a56106a0826107ff565b610823565b82525050565b60006106b78286610694565b6020820191506106c78285610694565b6020820191506106d78284610620565b9150819050949350505050565b60006020820190506106f960008301846105a4565b92915050565b6000602082019050818103600083015261071981846105c2565b905092915050565b60006020820190506107366000830184610685565b92915050565b6000819050602082019050919050565b60008190508160005260206000209050919050565b600081519050919050565b600081549050919050565b6000602082019050919050565b6000600182019050919050565b600082825260208201905092915050565b600081905092915050565b600073ffffffffffffffffffffffffffffffffffffffff82169050919050565b60006107d8826107df565b9050919050565b600073ffffffffffffffffffffffffffffffffffffffff82169050919050565b6000819050919050565b600061081c610817836108a0565b6107ad565b9050919050565b6000819050919050565b6000610838826107ff565b9150610843836107ff565b9250826108535761085261085e565b5b828206905092915050565b7f4e487b7100000000000000000000000000000000000000000000000000000000600052601260045260246000fd5b60006108998254610809565b9050919050565b60008160001c9050919050565b6108b6816107ff565b81146108c157600080fd5b5056fea2646970667358221220cb756e71b3be868695147d6cce3549d266ffd6cb17ee3daf58a43b2789d427d964736f6c63430008000033",
  "linkReferences": {},
  "deployedLinkReferences": {}
}